{
  "contractName": "ERC721",
  "abi": [
    {
      "anonymous": false,
      "inputs": [
        {
          "indexed": true,
          "name": "_from",
          "type": "address"
        },
        {
          "indexed": true,
          "name": "_to",
          "type": "address"
        },
        {
          "indexed": true,
          "name": "_tokenId",
          "type": "uint256"
        }
      ],
      "name": "Transfer",
      "type": "event"
    },
    {
      "anonymous": false,
      "inputs": [
        {
          "indexed": false,
          "name": "_to",
          "type": "address"
        },
        {
          "indexed": false,
          "name": "_id",
          "type": "uint256"
        }
      ],
      "name": "Log",
      "type": "event"
    },
    {
      "anonymous": false,
      "inputs": [
        {
          "indexed": true,
          "name": "_owner",
          "type": "address"
        },
        {
          "indexed": true,
          "name": "_approved",
          "type": "address"
        },
        {
          "indexed": true,
          "name": "_tokenId",
          "type": "uint256"
        }
      ],
      "name": "Approval",
      "type": "event"
    },
    {
      "anonymous": false,
      "inputs": [
        {
          "indexed": true,
          "name": "_owner",
          "type": "address"
        },
        {
          "indexed": true,
          "name": "_operator",
          "type": "address"
        },
        {
          "indexed": false,
          "name": "_approved",
          "type": "bool"
        }
      ],
      "name": "ApprovalForAll",
      "type": "event"
    },
    {
      "constant": true,
      "inputs": [
        {
          "name": "_owner",
          "type": "address"
        }
      ],
      "name": "balanceOf",
      "outputs": [
        {
          "name": "",
          "type": "uint256"
        }
      ],
      "payable": false,
      "stateMutability": "view",
      "type": "function"
    },
    {
      "constant": true,
      "inputs": [
        {
          "name": "_tokenId",
          "type": "uint256"
        }
      ],
      "name": "ownerOf",
      "outputs": [
        {
          "name": "_owner",
          "type": "address"
        }
      ],
      "payable": false,
      "stateMutability": "view",
      "type": "function"
    },
    {
      "constant": false,
      "inputs": [
        {
          "name": "_from",
          "type": "address"
        },
        {
          "name": "_to",
          "type": "address"
        },
        {
          "name": "_tokenId",
          "type": "uint256"
        }
      ],
      "name": "safeTransferFrom",
      "outputs": [],
      "payable": false,
      "stateMutability": "nonpayable",
      "type": "function"
    },
    {
      "constant": false,
      "inputs": [
        {
          "name": "_from",
          "type": "address"
        },
        {
          "name": "_to",
          "type": "address"
        },
        {
          "name": "_tokenId",
          "type": "uint256"
        },
        {
          "name": "_data",
          "type": "bytes"
        }
      ],
      "name": "safeTransferFrom",
      "outputs": [],
      "payable": false,
      "stateMutability": "nonpayable",
      "type": "function"
    },
    {
      "constant": false,
      "inputs": [
        {
          "name": "_from",
          "type": "address"
        },
        {
          "name": "_to",
          "type": "address"
        },
        {
          "name": "_tokenId",
          "type": "uint256"
        }
      ],
      "name": "transferFrom",
      "outputs": [],
      "payable": false,
      "stateMutability": "nonpayable",
      "type": "function"
    },
    {
      "constant": false,
      "inputs": [
        {
          "name": "_approved",
          "type": "address"
        },
        {
          "name": "_tokenId",
          "type": "uint256"
        }
      ],
      "name": "approve",
      "outputs": [],
      "payable": false,
      "stateMutability": "nonpayable",
      "type": "function"
    },
    {
      "constant": false,
      "inputs": [
        {
          "name": "_operator",
          "type": "address"
        },
        {
          "name": "_approved",
          "type": "bool"
        }
      ],
      "name": "setApprovalForAll",
      "outputs": [],
      "payable": false,
      "stateMutability": "nonpayable",
      "type": "function"
    },
    {
      "constant": true,
      "inputs": [
        {
          "name": "_tokenId",
          "type": "uint256"
        }
      ],
      "name": "getApproved",
      "outputs": [
        {
          "name": "",
          "type": "address"
        }
      ],
      "payable": false,
      "stateMutability": "view",
      "type": "function"
    },
    {
      "constant": true,
      "inputs": [
        {
          "name": "_owner",
          "type": "address"
        },
        {
          "name": "_operator",
          "type": "address"
        }
      ],
      "name": "isApprovedForAll",
      "outputs": [
        {
          "name": "",
          "type": "bool"
        }
      ],
      "payable": false,
      "stateMutability": "view",
      "type": "function"
    }
  ],
  "bytecode": "0x608060405234801561001057600080fd5b50611702806100206000396000f300608060405260043610610099576000357c0100000000000000000000000000000000000000000000000000000000900463ffffffff168063081812fc1461009e578063095ea7b31461010b57806323b872dd1461015857806342842e0e146101c55780636352211e1461023257806370a082311461029f578063a22cb465146102f6578063b88d4fde14610345578063e985e9c5146103ca575b600080fd5b3480156100aa57600080fd5b506100c960048036038101908080359060200190929190505050610445565b604051808273ffffffffffffffffffffffffffffffffffffffff1673ffffffffffffffffffffffffffffffffffffffff16815260200191505060405180910390f35b34801561011757600080fd5b50610156600480360381019080803573ffffffffffffffffffffffffffffffffffffffff169060200190929190803590602001909291905050506104f2565b005b34801561016457600080fd5b506101c3600480360381019080803573ffffffffffffffffffffffffffffffffffffffff169060200190929190803573ffffffffffffffffffffffffffffffffffffffff1690602001909291908035906020019092919050505061078b565b005b3480156101d157600080fd5b50610230600480360381019080803573ffffffffffffffffffffffffffffffffffffffff169060200190929190803573ffffffffffffffffffffffffffffffffffffffff169060200190929190803590602001909291905050506109fb565b005b34801561023e57600080fd5b5061025d60048036038101908080359060200190929190505050610a1c565b604051808273ffffffffffffffffffffffffffffffffffffffff1673ffffffffffffffffffffffffffffffffffffffff16815260200191505060405180910390f35b3480156102ab57600080fd5b506102e0600480360381019080803573ffffffffffffffffffffffffffffffffffffffff169060200190929190505050610a94565b6040518082815260200191505060405180910390f35b34801561030257600080fd5b50610343600480360381019080803573ffffffffffffffffffffffffffffffffffffffff169060200190929190803515159060200190929190505050610b18565b005b34801561035157600080fd5b506103c8600480360381019080803573ffffffffffffffffffffffffffffffffffffffff169060200190929190803573ffffffffffffffffffffffffffffffffffffffff16906020019092919080359060200190929190803590602001908201803590602001919091929391929390505050610c55565b005b3480156103d657600080fd5b5061042b600480360381019080803573ffffffffffffffffffffffffffffffffffffffff169060200190929190803573ffffffffffffffffffffffffffffffffffffffff169060200190929190505050610c9a565b604051808215151515815260200191505060405180910390f35b600081600073ffffffffffffffffffffffffffffffffffffffff1660008083815260200190815260200160002060009054906101000a900473ffffffffffffffffffffffffffffffffffffffff1673ffffffffffffffffffffffffffffffffffffffff16141515156104b657600080fd5b6002600084815260200190815260200160002060009054906101000a900473ffffffffffffffffffffffffffffffffffffffff16915050919050565b600081600080600083815260200190815260200160002060009054906101000a900473ffffffffffffffffffffffffffffffffffffffff1690503373ffffffffffffffffffffffffffffffffffffffff168173ffffffffffffffffffffffffffffffffffffffff1614806105ec5750600360008273ffffffffffffffffffffffffffffffffffffffff1673ffffffffffffffffffffffffffffffffffffffff16815260200190815260200160002060003373ffffffffffffffffffffffffffffffffffffffff1673ffffffffffffffffffffffffffffffffffffffff16815260200190815260200160002060009054906101000a900460ff165b15156105f757600080fd5b83600073ffffffffffffffffffffffffffffffffffffffff1660008083815260200190815260200160002060009054906101000a900473ffffffffffffffffffffffffffffffffffffffff1673ffffffffffffffffffffffffffffffffffffffff161415151561066657600080fd5b60008086815260200190815260200160002060009054906101000a900473ffffffffffffffffffffffffffffffffffffffff1693508373ffffffffffffffffffffffffffffffffffffffff168673ffffffffffffffffffffffffffffffffffffffff16141515156106d657600080fd5b856002600087815260200190815260200160002060006101000a81548173ffffffffffffffffffffffffffffffffffffffff021916908373ffffffffffffffffffffffffffffffffffffffff160217905550848673ffffffffffffffffffffffffffffffffffffffff168573ffffffffffffffffffffffffffffffffffffffff167f8c5be1e5ebec7d5bd14f71427d1e84f3dd0314c0f7b2291e5b200ac8c7c3b92560405160405180910390a4505050505050565b600081600080600083815260200190815260200160002060009054906101000a900473ffffffffffffffffffffffffffffffffffffffff1690503373ffffffffffffffffffffffffffffffffffffffff168173ffffffffffffffffffffffffffffffffffffffff16148061083257503373ffffffffffffffffffffffffffffffffffffffff1661081a83610445565b73ffffffffffffffffffffffffffffffffffffffff16145b806108c35750600360008273ffffffffffffffffffffffffffffffffffffffff1673ffffffffffffffffffffffffffffffffffffffff16815260200190815260200160002060003373ffffffffffffffffffffffffffffffffffffffff1673ffffffffffffffffffffffffffffffffffffffff16815260200190815260200160002060009054906101000a900460ff165b15156108ce57600080fd5b83600073ffffffffffffffffffffffffffffffffffffffff1660008083815260200190815260200160002060009054906101000a900473ffffffffffffffffffffffffffffffffffffffff1673ffffffffffffffffffffffffffffffffffffffff161415151561093d57600080fd5b60008086815260200190815260200160002060009054906101000a900473ffffffffffffffffffffffffffffffffffffffff1693508673ffffffffffffffffffffffffffffffffffffffff168473ffffffffffffffffffffffffffffffffffffffff161415156109ac57600080fd5b600073ffffffffffffffffffffffffffffffffffffffff168673ffffffffffffffffffffffffffffffffffffffff16141515156109e857600080fd5b6109f28686610da5565b50505050505050565b610a178383836020604051908101604052806000815250610e59565b505050565b600080600083815260200190815260200160002060009054906101000a900473ffffffffffffffffffffffffffffffffffffffff169050600073ffffffffffffffffffffffffffffffffffffffff168173ffffffffffffffffffffffffffffffffffffffff1614151515610a8f57600080fd5b919050565b60008073ffffffffffffffffffffffffffffffffffffffff168273ffffffffffffffffffffffffffffffffffffffff1614151515610ad157600080fd5b600160008373ffffffffffffffffffffffffffffffffffffffff1673ffffffffffffffffffffffffffffffffffffffff168152602001908152602001600020549050919050565b600073ffffffffffffffffffffffffffffffffffffffff168273ffffffffffffffffffffffffffffffffffffffff1614151515610b5457600080fd5b80600360003373ffffffffffffffffffffffffffffffffffffffff1673ffffffffffffffffffffffffffffffffffffffff16815260200190815260200160002060008473ffffffffffffffffffffffffffffffffffffffff1673ffffffffffffffffffffffffffffffffffffffff16815260200190815260200160002060006101000a81548160ff0219169083151502179055508173ffffffffffffffffffffffffffffffffffffffff163373ffffffffffffffffffffffffffffffffffffffff167f17307eab39ab6107e8899845ad3d59bd9653f200f220920489ca2b5937696c3183604051808215151515815260200191505060405180910390a35050565b610c9385858585858080601f016020809104026020016040519081016040528093929190818152602001838380828437820191505050505050610e59565b5050505050565b60008073ffffffffffffffffffffffffffffffffffffffff168373ffffffffffffffffffffffffffffffffffffffff1614151515610cd757600080fd5b600073ffffffffffffffffffffffffffffffffffffffff168273ffffffffffffffffffffffffffffffffffffffff1614151515610d1357600080fd5b600360008473ffffffffffffffffffffffffffffffffffffffff1673ffffffffffffffffffffffffffffffffffffffff16815260200190815260200160002060008373ffffffffffffffffffffffffffffffffffffffff1673ffffffffffffffffffffffffffffffffffffffff16815260200190815260200160002060009054906101000a900460ff16905092915050565b600080600083815260200190815260200160002060009054906101000a900473ffffffffffffffffffffffffffffffffffffffff169050610de5826112e1565b610def818361136e565b610df983836114e3565b818373ffffffffffffffffffffffffffffffffffffffff168273ffffffffffffffffffffffffffffffffffffffff167fddf252ad1be2c89b69c2b068fc378daa952ba7f163c4a11628f55a4df523b3ef60405160405180910390a4505050565b60008083600080600083815260200190815260200160002060009054906101000a900473ffffffffffffffffffffffffffffffffffffffff1690503373ffffffffffffffffffffffffffffffffffffffff168173ffffffffffffffffffffffffffffffffffffffff161480610f0157503373ffffffffffffffffffffffffffffffffffffffff16610ee983610445565b73ffffffffffffffffffffffffffffffffffffffff16145b80610f925750600360008273ffffffffffffffffffffffffffffffffffffffff1673ffffffffffffffffffffffffffffffffffffffff16815260200190815260200160002060003373ffffffffffffffffffffffffffffffffffffffff1673ffffffffffffffffffffffffffffffffffffffff16815260200190815260200160002060009054906101000a900460ff165b1515610f9d57600080fd5b85600073ffffffffffffffffffffffffffffffffffffffff1660008083815260200190815260200160002060009054906101000a900473ffffffffffffffffffffffffffffffffffffffff1673ffffffffffffffffffffffffffffffffffffffff161415151561100c57600080fd5b60008088815260200190815260200160002060009054906101000a900473ffffffffffffffffffffffffffffffffffffffff1694508873ffffffffffffffffffffffffffffffffffffffff168573ffffffffffffffffffffffffffffffffffffffff1614151561107b57600080fd5b600073ffffffffffffffffffffffffffffffffffffffff168873ffffffffffffffffffffffffffffffffffffffff16141515156110b757600080fd5b6110c18888610da5565b6110e08873ffffffffffffffffffffffffffffffffffffffff166116a5565b156112d6578773ffffffffffffffffffffffffffffffffffffffff1663150b7a02338b8a8a6040518563ffffffff167c0100000000000000000000000000000000000000000000000000000000028152600401808573ffffffffffffffffffffffffffffffffffffffff1673ffffffffffffffffffffffffffffffffffffffff1681526020018473ffffffffffffffffffffffffffffffffffffffff1673ffffffffffffffffffffffffffffffffffffffff16815260200183815260200180602001828103825283818151815260200191508051906020019080838360005b838110156111da5780820151818401526020810190506111bf565b50505050905090810190601f1680156112075780820380516001836020036101000a031916815260200191505b5095505050505050602060405180830381600087803b15801561122957600080fd5b505af115801561123d573d6000803e3d6000fd5b505050506040513d602081101561125357600080fd5b8101908080519060200190929190505050935063150b7a027c0100000000000000000000000000000000000000000000000000000000027bffffffffffffffffffffffffffffffffffffffffffffffffffffffff1916847bffffffffffffffffffffffffffffffffffffffffffffffffffffffff19161415156112d557600080fd5b5b505050505050505050565b60006002600083815260200190815260200160002060009054906101000a900473ffffffffffffffffffffffffffffffffffffffff1673ffffffffffffffffffffffffffffffffffffffff1614151561136b576002600082815260200190815260200160002060006101000a81549073ffffffffffffffffffffffffffffffffffffffff02191690555b50565b8173ffffffffffffffffffffffffffffffffffffffff1660008083815260200190815260200160002060009054906101000a900473ffffffffffffffffffffffffffffffffffffffff1673ffffffffffffffffffffffffffffffffffffffff161415156113da57600080fd5b6000600160008473ffffffffffffffffffffffffffffffffffffffff1673ffffffffffffffffffffffffffffffffffffffff1681526020019081526020016000205411151561142557fe5b60018060008473ffffffffffffffffffffffffffffffffffffffff1673ffffffffffffffffffffffffffffffffffffffff1681526020019081526020016000205403600160008473ffffffffffffffffffffffffffffffffffffffff1673ffffffffffffffffffffffffffffffffffffffff1681526020019081526020016000208190555060008082815260200190815260200160002060006101000a81549073ffffffffffffffffffffffffffffffffffffffff02191690555050565b600073ffffffffffffffffffffffffffffffffffffffff1660008083815260200190815260200160002060009054906101000a900473ffffffffffffffffffffffffffffffffffffffff1673ffffffffffffffffffffffffffffffffffffffff1614151561155057600080fd5b7ff950957d2407bed19dc99b718b46b4ce6090c05589006dfb86fd22c34865b23e8282604051808373ffffffffffffffffffffffffffffffffffffffff1673ffffffffffffffffffffffffffffffffffffffff1681526020018281526020019250505060405180910390a18160008083815260200190815260200160002060006101000a81548173ffffffffffffffffffffffffffffffffffffffff021916908373ffffffffffffffffffffffffffffffffffffffff16021790555061165e60018060008573ffffffffffffffffffffffffffffffffffffffff1673ffffffffffffffffffffffffffffffffffffffff168152602001908152602001600020546116b890919063ffffffff16565b600160008473ffffffffffffffffffffffffffffffffffffffff1673ffffffffffffffffffffffffffffffffffffffff168152602001908152602001600020819055505050565b600080823b905060008111915050919050565b60008082840190508381101515156116cc57fe5b80915050929150505600a165627a7a7230582068c2109a59d35d228f573ccf8f60b54bfb66c7e59cc364a00882fbbecaf070c30029",
  "source": "pragma solidity ^0.4.18;\n\nimport \"./ERC721TokenReceiver.sol\";\nimport \"./utils/SafeMath.sol\";\nimport \"./utils/AddressUtils.sol\";\n\n/**\n * @dev ERC-721 non-fungible token standard. See https://goo.gl/pc9yoS.\n */\ncontract ERC721 {\n  using SafeMath for uint256;\n  using AddressUtils for address;\n\n  mapping (uint256 => address) internal idToOwner;\n\n  mapping (address => uint256) internal ownerToNFTokenCount;\n  mapping (uint256 => address) internal idToApprovals;\n  mapping (address => mapping (address => bool)) internal ownerToOperators;\n\n  /**\n   * @dev Magic value of a smart contract that can recieve NFT.\n   * Equal to: bytes4(keccak256(\"onERC721Received(address,address,uint256,bytes)\")).\n   */\n  bytes4 constant MAGIC_ON_ERC721_RECEIVED = 0x150b7a02;\n\n\n  /**\n   * @dev Emits when ownership of any NFT changes by any mechanism. This event emits when NFTs are\n   * created (`from` == 0) and destroyed (`to` == 0). Exception: during contract creation, any\n   * number of NFTs may be created and assigned without emitting Transfer. At the time of any\n   * transfer, the approved address for that NFT (if any) is reset to none.\n   */\n  event Transfer(\n    address indexed _from,\n    address indexed _to,\n    uint256 indexed _tokenId\n  );\n\n  event Log(\n      address _to,\n      uint _id\n      );\n\n  /**\n   * @dev This emits when the approved address for an NFT is changed or reaffirmed. The zero\n   * address indicates there is no approved address. When a Transfer event emits, this also\n   * indicates that the approved address for that NFT (if any) is reset to none.\n   */\n  event Approval(\n    address indexed _owner,\n    address indexed _approved,\n    uint256 indexed _tokenId\n  );\n\n  /**\n   * @dev This emits when an operator is enabled or disabled for an owner. The operator can manage\n   * all NFTs of the owner.\n   */\n  event ApprovalForAll(\n    address indexed _owner,\n    address indexed _operator,\n    bool _approved\n  );\n\n  /**\n   * @dev Guarantees that the msg.sender is an owner or operator of the given NFT.\n   * @param _tokenId ID of the NFT to validate.\n   */\n  modifier canOperate(\n    uint256 _tokenId\n  ) {\n    address tokenOwner = idToOwner[_tokenId];\n    require(tokenOwner == msg.sender || ownerToOperators[tokenOwner][msg.sender]);\n    _;\n  }\n\n  /**\n   * @dev Guarantees that the msg.sender is allowed to transfer NFT.\n   * @param _tokenId ID of the NFT to transfer.\n   */\n  modifier canTransfer(\n    uint256 _tokenId\n  ) {\n    address tokenOwner = idToOwner[_tokenId];\n    require(\n      tokenOwner == msg.sender\n      || getApproved(_tokenId) == msg.sender\n      || ownerToOperators[tokenOwner][msg.sender]\n    );\n\n    _;\n  }\n\n  /**\n   * @dev Guarantees that _tokenId is a valid Token.\n   * @param _tokenId ID of the NFT to validate.\n   */\n  modifier validNFToken(\n    uint256 _tokenId\n  ) {\n    require(idToOwner[_tokenId] != address(0));\n    _;\n  }\n\n  function balanceOf(\n    address _owner\n  )\n    external\n    view\n    returns (uint256)\n  {\n    require(_owner != address(0));\n    return ownerToNFTokenCount[_owner];\n  }\n\n  /**\n   * @dev Returns the address of the owner of the NFT. NFTs assigned to zero address are considered\n   * invalid, and queries about them do throw.\n   * @param _tokenId The identifier for an NFT.\n   */\n  function ownerOf(\n    uint256 _tokenId\n  )\n    external\n    view\n    returns (address _owner)\n  {\n    _owner = idToOwner[_tokenId];\n    require(_owner != address(0));\n  }\n\n  /**\n   * @dev Transfers the ownership of an NFT from one address to another address.\n   * @notice Throws unless `msg.sender` is the current owner, an authorized operator, or the\n   * approved address for this NFT. Throws if `_from` is not the current owner. Throws if `_to` is\n   * the zero address. Throws if `_tokenId` is not a valid NFT. When transfer is complete, this\n   * function checks if `_to` is a smart contract (code size > 0). If so, it calls `onERC721Received`\n   * on `_to` and throws if the return value is not `bytes4(keccak256(\"onERC721Received(address,uint256,bytes)\"))`.\n   * @param _from The current owner of the NFT.\n   * @param _to The new owner.\n   * @param _tokenId The NFT to transfer.\n   * @param _data Additional data with no specified format, sent in call to `_to`.\n   */\n  function safeTransferFrom(\n    address _from,\n    address _to,\n    uint256 _tokenId,\n    bytes _data\n  )\n    external\n  {\n    _safeTransferFrom(_from, _to, _tokenId, _data);\n  }\n\n  /**\n   * @dev Transfers the ownership of an NFT from one address to another address.\n   * @notice This works identically to the other function with an extra data parameter, except this\n   * function just sets data to \"\"\n   * @param _from The current owner of the NFT.\n   * @param _to The new owner.\n   * @param _tokenId The NFT to transfer.\n   */\n  function safeTransferFrom(\n    address _from,\n    address _to,\n    uint256 _tokenId\n  )\n    external\n  {\n    _safeTransferFrom(_from, _to, _tokenId, \"\");\n  }\n\n  /**\n   * @dev Throws unless `msg.sender` is the current owner, an authorized operator, or the approved\n   * address for this NFT. Throws if `_from` is not the current owner. Throws if `_to` is the zero\n   * address. Throws if `_tokenId` is not a valid NFT.\n   * @notice The caller is responsible to confirm that `_to` is capable of receiving NFTs or else\n   * they maybe be permanently lost.\n   * @param _from The current owner of the NFT.\n   * @param _to The new owner.\n   * @param _tokenId The NFT to transfer.\n   */\n  function transferFrom(\n    address _from,\n    address _to,\n    uint256 _tokenId\n  )\n    external\n    canTransfer(_tokenId)\n    validNFToken(_tokenId)\n  {\n    address tokenOwner = idToOwner[_tokenId];\n    require(tokenOwner == _from);\n    require(_to != address(0));\n\n    _transfer(_to, _tokenId);\n  }\n\n  /**\n   * @dev Set or reaffirm the approved address for an NFT.\n   * @notice The zero address indicates there is no approved address. Throws unless `msg.sender` is\n   * the current NFT owner, or an authorized operator of the current owner.\n   * @param _approved Address to be approved for the given NFT ID.\n   * @param _tokenId ID of the token to be approved.\n   */\n  function approve(\n    address _approved,\n    uint256 _tokenId\n  )\n    external\n    canOperate(_tokenId)\n    validNFToken(_tokenId)\n  {\n    address tokenOwner = idToOwner[_tokenId];\n    require(_approved != tokenOwner);\n\n    idToApprovals[_tokenId] = _approved;\n    Approval(tokenOwner, _approved, _tokenId);\n  }\n\n  /**\n   * @dev Enables or disables approval for a third party (\"operator\") to manage all of\n   * `msg.sender`'s assets. It also emits the ApprovalForAll event.\n   * @notice This works even if sender doesn't own any tokens at the time.\n   * @param _operator Address to add to the set of authorized operators.\n   * @param _approved True if the operators is approved, false to revoke approval.\n   */\n  function setApprovalForAll(\n    address _operator,\n    bool _approved\n  )\n    external\n  {\n    require(_operator != address(0));\n    ownerToOperators[msg.sender][_operator] = _approved;\n    ApprovalForAll(msg.sender, _operator, _approved);\n  }\n\n  /**\n   * @dev Get the approved address for a single NFT.\n   * @notice Throws if `_tokenId` is not a valid NFT.\n   * @param _tokenId ID of the NFT to query the approval of.\n   */\n  function getApproved(\n    uint256 _tokenId\n  )\n    public\n    view\n    validNFToken(_tokenId)\n    returns (address)\n  {\n    return idToApprovals[_tokenId];\n  }\n\n  /**\n   * @dev Checks if `_operator` is an approved operator for `_owner`.\n   * @param _owner The address that owns the NFTs.\n   * @param _operator The address that acts on behalf of the owner.\n   */\n  function isApprovedForAll(\n    address _owner,\n    address _operator\n  )\n    external\n    view\n    returns (bool)\n  {\n    require(_owner != address(0));\n    require(_operator != address(0));\n    return ownerToOperators[_owner][_operator];\n  }\n\n  /**\n   * @dev Actually perform the safeTransferFrom.\n   * @param _from The current owner of the NFT.\n   * @param _to The new owner.\n   * @param _tokenId The NFT to transfer.\n   * @param _data Additional data with no specified format, sent in call to `_to`.\n   */\n  function _safeTransferFrom(\n    address _from,\n    address _to,\n    uint256 _tokenId,\n    bytes _data\n  )\n    internal\n    canTransfer(_tokenId)\n    validNFToken(_tokenId)\n  {\n    address tokenOwner = idToOwner[_tokenId];\n    require(tokenOwner == _from);\n    require(_to != address(0));\n\n    _transfer(_to, _tokenId);\n\n    if (_to.isContract()) {\n      bytes4 retval = ERC721TokenReceiver(_to).onERC721Received(msg.sender, _from, _tokenId, _data);\n      require(retval == MAGIC_ON_ERC721_RECEIVED);\n    }\n  }\n\n  /**\n   * @dev Actually preforms the transfer.\n   * @notice Does NO checks.\n   * @param _to Address of a new owner.\n   * @param _tokenId The NFT that is being transferred.\n   */\n  function _transfer(\n    address _to,\n    uint256 _tokenId\n  )\n    private\n  {\n    address from = idToOwner[_tokenId];\n    clearApproval(_tokenId);\n\n    removeNFToken(from, _tokenId);\n    addNFToken(_to, _tokenId);\n\n    Transfer(from, _to, _tokenId);\n  }\n\n  /**\n * @dev Mints a new NFT.\n * @notice This is a private function which should be called from user-implemented external\n * mint function. Its purpose is to show and properly initialize data structures when using this\n * implementation.\n * @param _to The address that will own the minted NFT.\n * @param _tokenId of the NFT to be minted by the msg.sender.\n */\n\n  function _mint(\n    address _to,\n    uint256 _tokenId\n  )\n    internal\n  {\n    require(_to != address(0));\n    require(_tokenId != 0);\n    require(idToOwner[_tokenId] == address(0));\n\n    addNFToken(_to, _tokenId);\n\n    Transfer(address(0), _to, _tokenId);\n  }\n\n  function removeNFToken(\n    address _from,\n    uint256 _tokenId\n  )\n    internal\n  {\n    require(idToOwner[_tokenId] == _from);\n    assert(ownerToNFTokenCount[_from] > 0);\n    ownerToNFTokenCount[_from] = ownerToNFTokenCount[_from] - 1;\n    delete idToOwner[_tokenId];\n  }\n\n  /**\n  * @dev Assignes a new NFT to owner.\n  * @notice Use and override this function with caution. Wrong usage can have serious consequences.\n  * @param _to Address to wich we want to add the NFT.\n  * @param _tokenId Which NFT we want to add.\n  */\n\n  function addNFToken(\n    address _to,\n    uint256 _tokenId\n  )\n    internal\n  {\n    require(idToOwner[_tokenId] == address(0));\n    Log(_to, _tokenId);\n    idToOwner[_tokenId] = _to;\n    ownerToNFTokenCount[_to] = ownerToNFTokenCount[_to].add(1);\n  }\n\n  function _burn(\n    address _owner,\n    uint256 _tokenId\n  )\n    validNFToken(_tokenId)\n    internal\n  {\n    clearApproval(_tokenId);\n    removeNFToken(_owner, _tokenId);\n    Transfer(_owner, address(0), _tokenId);\n  }\n\n  /**\n   * @dev Clears the current approval of a given NFT ID.\n   * @param _tokenId ID of the NFT to be transferred.\n   */\n  function clearApproval(\n    uint256 _tokenId\n  )\n    private\n  {\n    if(idToApprovals[_tokenId] != 0)\n    {\n      delete idToApprovals[_tokenId];\n    }\n  }\n}\n",
  "sourcePath": "/home/cody/Desktop/Nomad/Nomad/truffle/contracts/ERC721.sol",
  "compiler": {
    "name": "solc",
    "version": "0.4.24+commit.e67f0147.Emscripten.clang"
  },
  "schemaVersion": "2.0.0",
  "updatedAt": "2018-10-06T20:57:42.853Z"
}