{
  "contractName": "Nomad",
  "abi": [
    {
      "constant": true,
      "inputs": [
        {
          "name": "",
          "type": "uint256"
        }
      ],
      "name": "worlds",
      "outputs": [
        {
          "name": "numItems",
          "type": "uint256"
        },
        {
          "name": "name",
          "type": "string"
        }
      ],
      "payable": false,
      "stateMutability": "view",
      "type": "function"
    },
    {
      "inputs": [
        {
          "name": "_",
          "type": "address"
        }
      ],
      "payable": false,
      "stateMutability": "nonpayable",
      "type": "constructor"
    },
    {
      "constant": false,
      "inputs": [
        {
          "name": "_name",
          "type": "string"
        }
      ],
      "name": "createWorld",
      "outputs": [],
      "payable": false,
      "stateMutability": "nonpayable",
      "type": "function"
    },
    {
      "constant": false,
      "inputs": [
        {
          "name": "_idx",
          "type": "uint256"
        },
        {
          "name": "_name",
          "type": "string"
        },
        {
          "name": "_quantity",
          "type": "uint256"
        }
      ],
      "name": "vote",
      "outputs": [],
      "payable": false,
      "stateMutability": "nonpayable",
      "type": "function"
    },
    {
      "constant": true,
      "inputs": [
        {
          "name": "_worldIdx",
          "type": "uint256"
        },
        {
          "name": "_itemId",
          "type": "uint256"
        }
      ],
      "name": "findItem",
      "outputs": [
        {
          "name": "_name",
          "type": "string"
        },
        {
          "name": "_quantity",
          "type": "uint256"
        }
      ],
      "payable": false,
      "stateMutability": "view",
      "type": "function"
    }
  ],
  "bytecode": "0x608060405234801561001057600080fd5b506040516020806106788339810180604052810190808051906020019092919050505050610635806100436000396000f300608060405260043610610062576000357c0100000000000000000000000000000000000000000000000000000000900463ffffffff1680633a1956ce14610067578063a134808314610114578063dc7a21d9146101cb578063f0f4545714610234575b600080fd5b34801561007357600080fd5b50610092600480360381019080803590602001909291905050506102b1565b6040518083815260200180602001828103825283818151815260200191508051906020019080838360005b838110156100d85780820151818401526020810190506100bd565b50505050905090810190601f1680156101055780820380516001836020036101000a031916815260200191505b50935050505060405180910390f35b34801561012057600080fd5b50610149600480360381019080803590602001909291908035906020019092919050505061037c565b6040518080602001838152602001828103825284818151815260200191508051906020019080838360005b8381101561018f578082015181840152602081019050610174565b50505050905090810190601f1680156101bc5780820380516001836020036101000a031916815260200191505b50935050505060405180910390f35b3480156101d757600080fd5b50610232600480360381019080803590602001908201803590602001908080601f0160208091040260200160405190810160405280939291908181526020018383808284378201915050505050509192919290505050610462565b005b34801561024057600080fd5b506102af60048036038101908080359060200190929190803590602001908201803590602001908080601f0160208091040260200160405190810160405280939291908181526020018383808284378201915050505050509192919290803590602001909291905050506104d2565b005b6000818154811015156102c057fe5b9060005260206000209060030201600091509050806001015490806002018054600181600116156101000203166002900480601f0160208091040260200160405190810160405280929190818152602001828054600181600116156101000203166002900480156103725780601f1061034757610100808354040283529160200191610372565b820191906000526020600020905b81548152906001019060200180831161035557829003601f168201915b5050505050905082565b606060008060008581548110151561039057fe5b906000526020600020906003020160000160008581526020019081526020016000209050806000018054600181600116156101000203166002900480601f01602080910402602001604051908101604052809291908181526020018280546001816001161561010002031660029004801561044c5780601f106104215761010080835404028352916020019161044c565b820191906000526020600020905b81548152906001019060200180831161042f57829003601f168201915b5050505050925080600101549150509250929050565b600060408051908101604052806000815260200183815250908060018154018082558091505090600182039060005260206000209060030201600090919290919091506000820151816001015560208201518160020190805190602001906104cb929190610564565b5050505050565b600080848154811015156104e257fe5b9060005260206000209060030201905060408051908101604052808481526020018381525081600001600083600101548152602001908152602001600020600082015181600001908051906020019061053c929190610564565b5060208201518160010155905050806001016000815480929190600101919050555050505050565b828054600181600116156101000203166002900490600052602060002090601f016020900481019282601f106105a557805160ff19168380011785556105d3565b828001600101855582156105d3579182015b828111156105d25782518255916020019190600101906105b7565b5b5090506105e091906105e4565b5090565b61060691905b808211156106025760008160009055506001016105ea565b5090565b905600a165627a7a72305820bcbef555a053119a775c177a14d537290bcae539f9d37b9cd876bb855b67680a0029",
  "source": "pragma solidity ^0.4.18;\n\ncontract Nomad {\n\n  struct Item {\n    string name;\n    uint quantity;\n  }\n\n  struct World {\n    mapping(uint => Item) items;\n    uint numItems;\n    string name;\n  }\n\n  function Nomad(address _) public {\n    // take in the ERC721 address\n  }\n\n  World[] public worlds;\n\n  function createWorld(string _name) public {\n    worlds.push(World({name: _name, numItems: 0}));\n  }\n\n  function vote(uint _idx, string _name, uint _quantity) public {\n    World storage world = worlds[_idx];\n    world.items[world.numItems] = Item(_name, _quantity); // <-- where we should plug in Cody's ERC721\n    world.numItems++;\n  }\n\n  function findItem(uint _worldIdx, uint _itemId) public view returns(string _name, uint _quantity) {\n    Item storage item = worlds[_worldIdx].items[_itemId];\n    _name = item.name;\n    _quantity = item.quantity;\n  }\n}\n",
  "sourcePath": "/home/cody/Desktop/Nomad/Nomad/truffle/contracts/Nomad.sol",
  "compiler": {
    "name": "solc",
    "version": "0.4.24+commit.e67f0147.Emscripten.clang"
  },
  "schemaVersion": "2.0.0",
  "updatedAt": "2018-10-06T19:19:27.419Z"
}