{
  "contractName": "Nomad",
  "abi": [
    {
      "constant": true,
      "inputs": [
        {
          "name": "",
          "type": "uint256"
        }
      ],
      "name": "worlds",
      "outputs": [
        {
          "name": "worldAddress",
          "type": "address"
        },
        {
          "name": "numItems",
          "type": "uint256"
        },
        {
          "name": "name",
          "type": "string"
        }
      ],
      "payable": false,
      "stateMutability": "view",
      "type": "function"
    },
    {
      "constant": true,
      "inputs": [],
      "name": "owner",
      "outputs": [
        {
          "name": "",
          "type": "address"
        }
      ],
      "payable": false,
      "stateMutability": "view",
      "type": "function"
    },
    {
      "inputs": [
        {
          "name": "_NomadAssetAddress",
          "type": "address"
        }
      ],
      "payable": false,
      "stateMutability": "nonpayable",
      "type": "constructor"
    },
    {
      "constant": false,
      "inputs": [
        {
          "name": "_name",
          "type": "string"
        },
        {
          "name": "_worldAddress",
          "type": "address"
        }
      ],
      "name": "createWorld",
      "outputs": [],
      "payable": false,
      "stateMutability": "nonpayable",
      "type": "function"
    },
    {
      "constant": false,
      "inputs": [
        {
          "name": "_worldIdx",
          "type": "uint256"
        },
        {
          "name": "_name",
          "type": "string"
        },
        {
          "name": "_quantity",
          "type": "uint256"
        }
      ],
      "name": "vote",
      "outputs": [],
      "payable": false,
      "stateMutability": "nonpayable",
      "type": "function"
    },
    {
      "constant": true,
      "inputs": [
        {
          "name": "_worldIdx",
          "type": "uint256"
        },
        {
          "name": "_itemId",
          "type": "uint256"
        }
      ],
      "name": "findItem",
      "outputs": [
        {
          "name": "_name",
          "type": "string"
        },
        {
          "name": "_quantity",
          "type": "uint256"
        }
      ],
      "payable": false,
      "stateMutability": "view",
      "type": "function"
    }
  ],
  "bytecode": "0x608060405234801561001057600080fd5b506040516020806109d58339810180604052810190808051906020019092919050505033600160006101000a81548173ffffffffffffffffffffffffffffffffffffffff021916908373ffffffffffffffffffffffffffffffffffffffff160217905550806000806101000a81548173ffffffffffffffffffffffffffffffffffffffff021916908373ffffffffffffffffffffffffffffffffffffffff16021790555050610911806100c46000396000f30060806040526004361061006d576000357c0100000000000000000000000000000000000000000000000000000000900463ffffffff1680633a1956ce146100725780634dab62e7146101525780638da5cb5b146101db578063a134808314610232578063f0f45457146102e9575b600080fd5b34801561007e57600080fd5b5061009d60048036038101908080359060200190929190505050610366565b604051808473ffffffffffffffffffffffffffffffffffffffff1673ffffffffffffffffffffffffffffffffffffffff16815260200183815260200180602001828103825283818151815260200191508051906020019080838360005b838110156101155780820151818401526020810190506100fa565b50505050905090810190601f1680156101425780820380516001836020036101000a031916815260200191505b5094505050505060405180910390f35b34801561015e57600080fd5b506101d9600480360381019080803590602001908201803590602001908080601f0160208091040260200160405190810160405280939291908181526020018383808284378201915050505050509192919290803573ffffffffffffffffffffffffffffffffffffffff169060200190929190505050610457565b005b3480156101e757600080fd5b506101f061052c565b604051808273ffffffffffffffffffffffffffffffffffffffff1673ffffffffffffffffffffffffffffffffffffffff16815260200191505060405180910390f35b34801561023e57600080fd5b506102676004803603810190808035906020019092919080359060200190929190505050610552565b6040518080602001838152602001828103825284818151815260200191508051906020019080838360005b838110156102ad578082015181840152602081019050610292565b50505050905090810190601f1680156102da5780820380516001836020036101000a031916815260200191505b50935050505060405180910390f35b3480156102f557600080fd5b5061036460048036038101908080359060200190929190803590602001908201803590602001908080601f016020809104026020016040519081016040528093929190818152602001838380828437820191505050505050919291929080359060200190929190505050610638565b005b60028181548110151561037557fe5b90600052602060002090600402016000915090508060010160009054906101000a900473ffffffffffffffffffffffffffffffffffffffff1690806002015490806003018054600181600116156101000203166002900480601f01602080910402602001604051908101604052809291908181526020018280546001816001161561010002031660029004801561044d5780601f106104225761010080835404028352916020019161044d565b820191906000526020600020905b81548152906001019060200180831161043057829003601f168201915b5050505050905083565b60026060604051908101604052808373ffffffffffffffffffffffffffffffffffffffff16815260200160008152602001848152509080600181540180825580915050906001820390600052602060002090600402016000909192909190915060008201518160010160006101000a81548173ffffffffffffffffffffffffffffffffffffffff021916908373ffffffffffffffffffffffffffffffffffffffff160217905550602082015181600201556040820151816003019080519060200190610524929190610840565b505050505050565b600160009054906101000a900473ffffffffffffffffffffffffffffffffffffffff1681565b606060008060028581548110151561056657fe5b906000526020600020906004020160000160008581526020019081526020016000209050806000018054600181600116156101000203166002900480601f0160208091040260200160405190810160405280929190818152602001828054600181600116156101000203166002900480156106225780601f106105f757610100808354040283529160200191610622565b820191906000526020600020905b81548152906001019060200180831161060557829003601f168201915b5050505050925080600101549150509250929050565b600060028481548110151561064957fe5b906000526020600020906004020190506040805190810160405280848152602001838152508160000160008360020154815260200190815260200160002060008201518160000190805190602001906106a3929190610840565b50602082015181600101559050506000809054906101000a900473ffffffffffffffffffffffffffffffffffffffff1673ffffffffffffffffffffffffffffffffffffffff1663f45a33a984868460010160009054906101000a900473ffffffffffffffffffffffffffffffffffffffff16866040518563ffffffff167c010000000000000000000000000000000000000000000000000000000002815260040180806020018581526020018473ffffffffffffffffffffffffffffffffffffffff1673ffffffffffffffffffffffffffffffffffffffff168152602001838152602001828103825286818151815260200191508051906020019080838360005b838110156107bf5780820151818401526020810190506107a4565b50505050905090810190601f1680156107ec5780820380516001836020036101000a031916815260200191505b5095505050505050600060405180830381600087803b15801561080e57600080fd5b505af1158015610822573d6000803e3d6000fd5b50505050806002016000815480929190600101919050555050505050565b828054600181600116156101000203166002900490600052602060002090601f016020900481019282601f1061088157805160ff19168380011785556108af565b828001600101855582156108af579182015b828111156108ae578251825591602001919060010190610893565b5b5090506108bc91906108c0565b5090565b6108e291905b808211156108de5760008160009055506001016108c6565b5090565b905600a165627a7a7230582051fdf912189358b71df42eeb558827edcc1d0903b516e5e1a41bf1512103f6190029",
  "source": "pragma solidity ^0.4.18;\nimport \"./NomadAsset.sol\";\n\ncontract Nomad {\n  NomadAsset NomadAssetContract;\n  address public owner;\n\n  struct Item {\n    string name;\n    uint quantity;\n  }\n\n  struct World {\n    mapping(uint => Item) items;\n    address worldAddress;\n    uint numItems;\n    string name;\n  }\n\n  function Nomad(address _NomadAssetAddress) public {\n    // take in the ERC721 address\n    owner = msg.sender;\n    NomadAssetContract = NomadAsset(_NomadAssetAddress);\n  }\n\n  World[] public worlds;\n\n  function createWorld(string _name, address _worldAddress) public {\n    worlds.push(World({name: _name, numItems: 0, worldAddress: _worldAddress}));\n  }\n\n  function vote(uint _worldIdx, string _name, uint _quantity) public {\n    World storage world = worlds[_worldIdx];\n    world.items[world.numItems] = Item(_name, _quantity); // <-- where we should plug in Cody's ERC721\n    NomadAssetContract.createItem(_name, _worldIdx, world.worldAddress, _quantity);\n    world.numItems++;\n  }\n\n  function findItem(uint _worldIdx, uint _itemId) public view returns(string _name, uint _quantity) {\n    Item storage item = worlds[_worldIdx].items[_itemId];\n    _name = item.name;\n    _quantity = item.quantity;\n  }\n}\n",
  "sourcePath": "/home/cody/Desktop/Nomad/Nomad/truffle/contracts/Nomad.sol",
  "compiler": {
    "name": "solc",
    "version": "0.4.24+commit.e67f0147.Emscripten.clang"
  },
  "schemaVersion": "2.0.0",
  "updatedAt": "2018-10-06T20:57:42.842Z"
}