{
  "contractName": "Nomad",
  "abi": [
    {
      "constant": true,
      "inputs": [
        {
          "name": "",
          "type": "uint256"
        }
      ],
      "name": "worlds",
      "outputs": [
        {
          "name": "worldAddress",
          "type": "address"
        },
        {
          "name": "numItems",
          "type": "uint256"
        },
        {
          "name": "name",
          "type": "string"
        }
      ],
      "payable": false,
      "stateMutability": "view",
      "type": "function"
    },
    {
      "constant": false,
      "inputs": [
        {
          "name": "_name",
          "type": "string"
        },
        {
          "name": "_worldAddress",
          "type": "address"
        }
      ],
      "name": "createWorld",
      "outputs": [],
      "payable": false,
      "stateMutability": "nonpayable",
      "type": "function"
    },
    {
      "constant": true,
      "inputs": [],
      "name": "owner",
      "outputs": [
        {
          "name": "",
          "type": "address"
        }
      ],
      "payable": false,
      "stateMutability": "view",
      "type": "function"
    },
    {
      "constant": true,
      "inputs": [
        {
          "name": "_worldIdx",
          "type": "uint256"
        },
        {
          "name": "_itemId",
          "type": "uint256"
        }
      ],
      "name": "findItem",
      "outputs": [
        {
          "name": "_name",
          "type": "string"
        },
        {
          "name": "_quantity",
          "type": "uint256"
        }
      ],
      "payable": false,
      "stateMutability": "view",
      "type": "function"
    },
    {
      "constant": false,
      "inputs": [
        {
          "name": "_worldIdx",
          "type": "uint256"
        },
        {
          "name": "_name",
          "type": "string"
        },
        {
          "name": "_quantity",
          "type": "uint256"
        }
      ],
      "name": "vote",
      "outputs": [],
      "payable": false,
      "stateMutability": "nonpayable",
      "type": "function"
    },
    {
      "inputs": [
        {
          "name": "_NomadAssetAddress",
          "type": "address"
        }
      ],
      "payable": false,
      "stateMutability": "nonpayable",
      "type": "constructor"
    }
  ],
  "bytecode": "0x6060604052341561000f57600080fd5b604051602080610a098339810160405280805190602001909190505033600160006101000a81548173ffffffffffffffffffffffffffffffffffffffff021916908373ffffffffffffffffffffffffffffffffffffffff160217905550806000806101000a81548173ffffffffffffffffffffffffffffffffffffffff021916908373ffffffffffffffffffffffffffffffffffffffff1602179055505061094d806100bc6000396000f30060606040526004361061006d576000357c0100000000000000000000000000000000000000000000000000000000900463ffffffff1680633a1956ce146100725780634dab62e7146101655780638da5cb5b146101e1578063a134808314610236578063f0f45457146102e2575b600080fd5b341561007d57600080fd5b6100936004808035906020019091905050610351565b604051808473ffffffffffffffffffffffffffffffffffffffff1673ffffffffffffffffffffffffffffffffffffffff168152602001838152602001806020018281038252838181546001816001161561010002031660029004815260200191508054600181600116156101000203166002900480156101545780601f1061012957610100808354040283529160200191610154565b820191906000526020600020905b81548152906001019060200180831161013757829003601f168201915b505094505050505060405180910390f35b341561017057600080fd5b6101df600480803590602001908201803590602001908080601f0160208091040260200160405190810160405280939291908181526020018383808284378201915050505050509190803573ffffffffffffffffffffffffffffffffffffffff169060200190919050506103a9565b005b34156101ec57600080fd5b6101f461047a565b604051808273ffffffffffffffffffffffffffffffffffffffff1673ffffffffffffffffffffffffffffffffffffffff16815260200191505060405180910390f35b341561024157600080fd5b61026060048080359060200190919080359060200190919050506104a0565b6040518080602001838152602001828103825284818151815260200191508051906020019080838360005b838110156102a657808201518184015260208101905061028b565b50505050905090810190601f1680156102d35780820380516001836020036101000a031916815260200191505b50935050505060405180910390f35b34156102ed57600080fd5b61034f600480803590602001909190803590602001908201803590602001908080601f0160208091040260200160405190810160405280939291908181526020018383808284378201915050505050509190803590602001909190505061058c565b005b60028181548110151561036057fe5b90600052602060002090600402016000915090508060010160009054906101000a900473ffffffffffffffffffffffffffffffffffffffff169080600201549080600301905083565b600280548060010182816103bd919061078f565b916000526020600020906004020160006060604051908101604052808573ffffffffffffffffffffffffffffffffffffffff1681526020016000815260200186815250909190915060008201518160010160006101000a81548173ffffffffffffffffffffffffffffffffffffffff021916908373ffffffffffffffffffffffffffffffffffffffff1602179055506020820151816002015560408201518160030190805190602001906104729291906107c1565b505050505050565b600160009054906101000a900473ffffffffffffffffffffffffffffffffffffffff1681565b6104a8610841565b6000806002858154811015156104ba57fe5b906000526020600020906004020160000160008581526020019081526020016000209050806000018054600181600116156101000203166002900480601f0160208091040260200160405190810160405280929190818152602001828054600181600116156101000203166002900480156105765780601f1061054b57610100808354040283529160200191610576565b820191906000526020600020905b81548152906001019060200180831161055957829003601f168201915b5050505050925080600101549150509250929050565b600060028481548110151561059d57fe5b906000526020600020906004020190506040805190810160405280848152602001838152508160000160008360020154815260200190815260200160002060008201518160000190805190602001906105f79291906107c1565b50602082015181600101559050506000809054906101000a900473ffffffffffffffffffffffffffffffffffffffff1673ffffffffffffffffffffffffffffffffffffffff1663f45a33a984868460010160009054906101000a900473ffffffffffffffffffffffffffffffffffffffff16866040518563ffffffff167c010000000000000000000000000000000000000000000000000000000002815260040180806020018581526020018473ffffffffffffffffffffffffffffffffffffffff1673ffffffffffffffffffffffffffffffffffffffff168152602001838152602001828103825286818151815260200191508051906020019080838360005b838110156107135780820151818401526020810190506106f8565b50505050905090810190601f1680156107405780820380516001836020036101000a031916815260200191505b5095505050505050600060405180830381600087803b151561076157600080fd5b6102c65a03f1151561077257600080fd5b505050806002016000815480929190600101919050555050505050565b8154818355818115116107bc576004028160040283600052602060002091820191016107bb9190610855565b5b505050565b828054600181600116156101000203166002900490600052602060002090601f016020900481019282601f1061080257805160ff1916838001178555610830565b82800160010185558215610830579182015b8281111561082f578251825591602001919060010190610814565b5b50905061083d91906108b4565b5090565b602060405190810160405280600081525090565b6108b191905b808211156108ad5760006001820160006101000a81549073ffffffffffffffffffffffffffffffffffffffff021916905560028201600090556003820160006108a491906108d9565b5060040161085b565b5090565b90565b6108d691905b808211156108d25760008160009055506001016108ba565b5090565b90565b50805460018160011615610100020316600290046000825580601f106108ff575061091e565b601f01602090049060005260206000209081019061091d91906108b4565b5b505600a165627a7a723058207179dcaa342efc619271cad696b2e76e15dad15a06d3aec3f524797abfe3021e0029",
  "source": "pragma solidity ^0.4.18;\nimport \"./NomadAsset.sol\";\n\ncontract Nomad {\n  NomadAsset NomadAssetContract;\n  address public owner;\n\n  struct Item {\n    string name;\n    uint quantity;\n  }\n\n  struct World {\n    mapping(uint => Item) items;\n    address worldAddress;\n    uint numItems;\n    string name;\n  }\n\n  function Nomad(address _NomadAssetAddress) public {\n    // take in the ERC721 address\n    owner = msg.sender;\n    NomadAssetContract = NomadAsset(_NomadAssetAddress);\n  }\n\n  World[] public worlds;\n\n  function createWorld(string _name, address _worldAddress) public {\n    worlds.push(World({name: _name, numItems: 0, worldAddress: _worldAddress}));\n  }\n\n  function vote(uint _worldIdx, string _name, uint _quantity) public {\n    World storage world = worlds[_worldIdx];\n    world.items[world.numItems] = Item(_name, _quantity); // <-- where we should plug in Cody's ERC721\n    NomadAssetContract.createItem(_name, _worldIdx, world.worldAddress, _quantity);\n    world.numItems++;\n  }\n\n  function findItem(uint _worldIdx, uint _itemId) public view returns(string _name, uint _quantity) {\n    Item storage item = worlds[_worldIdx].items[_itemId];\n    _name = item.name;\n    _quantity = item.quantity;\n  }\n}\n",
  "sourcePath": "/Users/Dan/Desktop/repos/nomad/truffle/contracts/Nomad.sol",
  "compiler": {
    "name": "solc",
    "version": "0.4.18+commit.9cf6e910.Emscripten.clang"
  },
  "schemaVersion": "1.0.1",
  "updatedAt": "2018-10-07T01:21:28.591Z"
}