{
  "contractName": "Nomad",
  "abi": [
    {
      "constant": true,
      "inputs": [
        {
          "name": "",
          "type": "uint256"
        }
      ],
      "name": "worlds",
      "outputs": [
        {
          "name": "numItems",
          "type": "uint256"
        },
        {
          "name": "name",
          "type": "string"
        }
      ],
      "payable": false,
      "stateMutability": "view",
      "type": "function"
    },
    {
      "constant": true,
      "inputs": [
        {
          "name": "_worldIdx",
          "type": "uint256"
        },
        {
          "name": "_itemId",
          "type": "uint256"
        }
      ],
      "name": "findItem",
      "outputs": [
        {
          "name": "_name",
          "type": "string"
        },
        {
          "name": "_quantity",
          "type": "uint256"
        }
      ],
      "payable": false,
      "stateMutability": "view",
      "type": "function"
    },
    {
      "constant": false,
      "inputs": [
        {
          "name": "_name",
          "type": "string"
        }
      ],
      "name": "createWorld",
      "outputs": [],
      "payable": false,
      "stateMutability": "nonpayable",
      "type": "function"
    },
    {
      "constant": false,
      "inputs": [
        {
          "name": "_idx",
          "type": "uint256"
        },
        {
          "name": "_name",
          "type": "string"
        },
        {
          "name": "_quantity",
          "type": "uint256"
        }
      ],
      "name": "vote",
      "outputs": [],
      "payable": false,
      "stateMutability": "nonpayable",
      "type": "function"
    },
    {
      "inputs": [],
      "payable": false,
      "stateMutability": "nonpayable",
      "type": "constructor"
    }
  ],
  "bytecode": "0x6060604052341561000f57600080fd5b6106528061001e6000396000f300606060405260043610610062576000357c0100000000000000000000000000000000000000000000000000000000900463ffffffff1680633a1956ce14610067578063a134808314610127578063dc7a21d9146101d3578063f0f4545714610230575b600080fd5b341561007257600080fd5b610088600480803590602001909190505061029f565b60405180838152602001806020018281038252838181546001816001161561010002031660029004815260200191508054600181600116156101000203166002900480156101175780601f106100ec57610100808354040283529160200191610117565b820191906000526020600020905b8154815290600101906020018083116100fa57829003601f168201915b5050935050505060405180910390f35b341561013257600080fd5b61015160048080359060200190919080359060200190919050506102d1565b6040518080602001838152602001828103825284818151815260200191508051906020019080838360005b8381101561019757808201518184015260208101905061017c565b50505050905090810190601f1680156101c45780820380516001836020036101000a031916815260200191505b50935050505060405180910390f35b34156101de57600080fd5b61022e600480803590602001908201803590602001908080601f016020809104026020016040519081016040528093929190818152602001838380828437820191505050505050919050506103bd565b005b341561023b57600080fd5b61029d600480803590602001909190803590602001908201803590602001908080601f01602080910402602001604051908101604052809392919081815260200183838082843782019150505050505091908035906020019091905050610429565b005b6000818154811015156102ae57fe5b906000526020600020906003020160009150905080600101549080600201905082565b6102d96104bb565b6000806000858154811015156102eb57fe5b906000526020600020906003020160000160008581526020019081526020016000209050806000018054600181600116156101000203166002900480601f0160208091040260200160405190810160405280929190818152602001828054600181600116156101000203166002900480156103a75780601f1061037c576101008083540402835291602001916103a7565b820191906000526020600020905b81548152906001019060200180831161038a57829003601f168201915b5050505050925080600101549150509250929050565b600080548060010182816103d191906104cf565b91600052602060002090600302016000604080519081016040528060008152602001858152509091909150600082015181600101556020820151816002019080519060200190610422929190610501565b5050505050565b6000808481548110151561043957fe5b90600052602060002090600302019050604080519081016040528084815260200183815250816000016000836001015481526020019081526020016000206000820151816000019080519060200190610493929190610501565b5060208201518160010155905050806001016000815480929190600101919050555050505050565b602060405190810160405280600081525090565b8154818355818115116104fc576003028160030283600052602060002091820191016104fb9190610581565b5b505050565b828054600181600116156101000203166002900490600052602060002090601f016020900481019282601f1061054257805160ff1916838001178555610570565b82800160010185558215610570579182015b8281111561056f578251825591602001919060010190610554565b5b50905061057d91906105b9565b5090565b6105b691905b808211156105b257600060018201600090556002820160006105a991906105de565b50600301610587565b5090565b90565b6105db91905b808211156105d75760008160009055506001016105bf565b5090565b90565b50805460018160011615610100020316600290046000825580601f106106045750610623565b601f01602090049060005260206000209081019061062291906105b9565b5b505600a165627a7a7230582034a0bc2b9af03adece06eeac8ca18b49a8034e2b26b9e7e6293b4566cf8815cb0029",
  "source": "pragma solidity ^0.4.18;\n\ncontract Nomad {\n\n  struct Item {\n    string name;\n    uint quantity;\n  }\n\n  struct World {\n    mapping(uint => Item) items;\n    uint numItems;\n    string name;\n  }\n\n  function Nomad() public {\n    // take in the ERC721 address\n  }\n\n  World[] public worlds;\n\n  function createWorld(string _name) public {\n    worlds.push(World({name: _name, numItems: 0}));\n  }\n\n  function vote(uint _idx, string _name, uint _quantity) public {\n    World storage world = worlds[_idx];\n    world.items[world.numItems] = Item(_name, _quantity); // <-- where we should plug in Cody's ERC721\n    world.numItems++;\n  }\n\n  function findItem(uint _worldIdx, uint _itemId) public view returns(string _name, uint _quantity) {\n    Item storage item = worlds[_worldIdx].items[_itemId];\n    _name = item.name;\n    _quantity = item.quantity;\n  }\n}\n",
  "sourcePath": "/Users/Dan/Desktop/repos/nomad/truffle/contracts/Nomad.sol",
  "compiler": {
    "name": "solc",
    "version": "0.4.18+commit.9cf6e910.Emscripten.clang"
  },
  "schemaVersion": "1.0.1",
  "updatedAt": "2018-10-06T22:09:42.273Z"
}